{
  "contractName": "auction",
  "abi": [
    {
      "inputs": [],
      "name": "_time",
      "outputs": [
        {
          "internalType": "uint256",
          "name": "",
          "type": "uint256"
        }
      ],
      "stateMutability": "view",
      "type": "function",
      "constant": true
    },
    {
      "inputs": [
        {
          "internalType": "address",
          "name": "",
          "type": "address"
        }
      ],
      "name": "bidders",
      "outputs": [
        {
          "internalType": "uint256",
          "name": "",
          "type": "uint256"
        }
      ],
      "stateMutability": "view",
      "type": "function",
      "constant": true
    },
    {
      "inputs": [
        {
          "internalType": "uint256",
          "name": "",
          "type": "uint256"
        }
      ],
      "name": "bids",
      "outputs": [
        {
          "internalType": "uint256",
          "name": "",
          "type": "uint256"
        }
      ],
      "stateMutability": "view",
      "type": "function",
      "constant": true
    },
    {
      "inputs": [],
      "name": "duration",
      "outputs": [
        {
          "internalType": "uint256",
          "name": "",
          "type": "uint256"
        }
      ],
      "stateMutability": "view",
      "type": "function",
      "constant": true
    },
    {
      "inputs": [],
      "name": "startPoint",
      "outputs": [
        {
          "internalType": "uint256",
          "name": "",
          "type": "uint256"
        }
      ],
      "stateMutability": "view",
      "type": "function",
      "constant": true
    },
    {
      "inputs": [
        {
          "internalType": "uint256",
          "name": "timing",
          "type": "uint256"
        },
        {
          "internalType": "address payable",
          "name": "owner",
          "type": "address"
        },
        {
          "internalType": "uint256",
          "name": "feePoint",
          "type": "uint256"
        }
      ],
      "name": "setAuction",
      "outputs": [],
      "stateMutability": "nonpayable",
      "type": "function"
    },
    {
      "inputs": [
        {
          "internalType": "uint256",
          "name": "amount",
          "type": "uint256"
        },
        {
          "internalType": "address payable",
          "name": "bidder",
          "type": "address"
        }
      ],
      "name": "bid",
      "outputs": [],
      "stateMutability": "nonpayable",
      "type": "function"
    },
    {
      "inputs": [],
      "name": "getWinner",
      "outputs": [
        {
          "internalType": "address",
          "name": "",
          "type": "address"
        }
      ],
      "stateMutability": "view",
      "type": "function",
      "constant": true
    },
    {
      "inputs": [
        {
          "internalType": "uint256",
          "name": "fee",
          "type": "uint256"
        }
      ],
      "name": "getAsset",
      "outputs": [],
      "stateMutability": "payable",
      "type": "function",
      "payable": true
    },
    {
      "inputs": [],
      "name": "sendAsset",
      "outputs": [],
      "stateMutability": "payable",
      "type": "function",
      "payable": true
    }
  ],
  "bytecode": "0x6080604052671bc16d674ec8000060065534801561001c57600080fd5b506108dc8061002c6000396000f3fe6080604052600436106100915760003560e01c806357d15c6a1161005957806357d15c6a1461015c5780638e7ea5b2146101875780639f04996d146101b2578063eac8f5b8146101db578063fcc8f793146101f757610091565b80630fb5a6b4146100965780631b12d14a146100c1578063366ab0d9146100ec578063367c1837146101155780634423c5f11461011f575b600080fd5b3480156100a257600080fd5b506100ab610234565b6040516100b89190610622565b60405180910390f35b3480156100cd57600080fd5b506100d661023a565b6040516100e39190610622565b60405180910390f35b3480156100f857600080fd5b50610113600480360381019061010e91906106cc565b610240565b005b61011d61029a565b005b34801561012b57600080fd5b506101466004803603810190610141919061071f565b61035f565b6040516101539190610622565b60405180910390f35b34801561016857600080fd5b50610171610383565b60405161017e9190610622565b60405180910390f35b34801561019357600080fd5b5061019c610389565b6040516101a9919061076d565b60405180910390f35b3480156101be57600080fd5b506101d960048036038101906101d49190610788565b610427565b005b6101f560048036038101906101f0919061071f565b61051a565b005b34801561020357600080fd5b5061021e600480360381019061021991906107f4565b6105f1565b60405161022b9190610622565b60405180910390f35b60025481565b60045481565b816000806101000a81548173ffffffffffffffffffffffffffffffffffffffff021916908373ffffffffffffffffffffffffffffffffffffffff160217905550826002819055508060048190555042600881905550505050565b60008054906101000a900473ffffffffffffffffffffffffffffffffffffffff1673ffffffffffffffffffffffffffffffffffffffff163373ffffffffffffffffffffffffffffffffffffffff16146102f257600080fd5b600760009054906101000a900473ffffffffffffffffffffffffffffffffffffffff1673ffffffffffffffffffffffffffffffffffffffff166108fc6006549081150290604051600060405180830381858888f1935050505015801561035c573d6000803e3d6000fd5b50565b6003818154811061036f57600080fd5b906000526020600020016000915090505481565b60085481565b60008060009054906101000a900473ffffffffffffffffffffffffffffffffffffffff1673ffffffffffffffffffffffffffffffffffffffff163373ffffffffffffffffffffffffffffffffffffffff16146103e457600080fd5b6002546008546103f49190610850565b42116103ff57600080fd5b600760009054906101000a900473ffffffffffffffffffffffffffffffffffffffff16905090565b6000429050600454831161043a57600080fd5b60025460085461044a9190610850565b811061045557600080fd5b600383908060018154018082558091505060019003906000526020600020016000909190919091505582600160008473ffffffffffffffffffffffffffffffffffffffff1673ffffffffffffffffffffffffffffffffffffffff16815260200190815260200160002081905550600554831115610515578260058190555081600760006101000a81548173ffffffffffffffffffffffffffffffffffffffff021916908373ffffffffffffffffffffffffffffffffffffffff1602179055505b505050565b600760009054906101000a900473ffffffffffffffffffffffffffffffffffffffff1673ffffffffffffffffffffffffffffffffffffffff163373ffffffffffffffffffffffffffffffffffffffff161461057457600080fd5b600554811461058257600080fd5b34905060008054906101000a900473ffffffffffffffffffffffffffffffffffffffff1673ffffffffffffffffffffffffffffffffffffffff166108fc6005549081150290604051600060405180830381858888f193505050501580156105ed573d6000803e3d6000fd5b5050565b60016020528060005260406000206000915090505481565b6000819050919050565b61061c81610609565b82525050565b60006020820190506106376000830184610613565b92915050565b600080fd5b61064b81610609565b811461065657600080fd5b50565b60008135905061066881610642565b92915050565b600073ffffffffffffffffffffffffffffffffffffffff82169050919050565b60006106998261066e565b9050919050565b6106a98161068e565b81146106b457600080fd5b50565b6000813590506106c6816106a0565b92915050565b6000806000606084860312156106e5576106e461063d565b5b60006106f386828701610659565b9350506020610704868287016106b7565b925050604061071586828701610659565b9150509250925092565b6000602082840312156107355761073461063d565b5b600061074384828501610659565b91505092915050565b60006107578261066e565b9050919050565b6107678161074c565b82525050565b6000602082019050610782600083018461075e565b92915050565b6000806040838503121561079f5761079e61063d565b5b60006107ad85828601610659565b92505060206107be858286016106b7565b9150509250929050565b6107d18161074c565b81146107dc57600080fd5b50565b6000813590506107ee816107c8565b92915050565b60006020828403121561080a5761080961063d565b5b6000610818848285016107df565b91505092915050565b7f4e487b7100000000000000000000000000000000000000000000000000000000600052601160045260246000fd5b600061085b82610609565b915061086683610609565b9250827fffffffffffffffffffffffffffffffffffffffffffffffffffffffffffffffff0382111561089b5761089a610821565b5b82820190509291505056fea26469706673582212208dde893ef39a94fe05a8a68fc281fc47f1c098fc97e4a1a1d110fcde7b82f5c264736f6c634300080b0033",
  "immutableReferences": {},
  "source": "// SPDX-License-Identifier: MIT\r\npragma solidity ^0.8.0; \r\n\r\ncontract auction {\r\n    address payable assetOwner;\r\n\r\n    mapping(address => uint) public bidders;\r\n\r\n    uint public duration;\r\n\r\n    uint[] public bids;\r\n\r\n    uint public startPoint;\r\n\r\n    uint largest;\r\n\r\n    uint asset = 2 ether;\r\n\r\n    address payable winner;\r\n\r\n    uint public _time;\r\n\r\n    function setAuction(uint timing, address payable owner, uint feePoint) external {\r\n        assetOwner = owner;\r\n        duration = timing;\r\n        startPoint = feePoint;\r\n         _time = block.timestamp;\r\n    }\r\n\r\n    function bid(uint amount,address payable bidder) external {\r\n        uint clock = block.timestamp;\r\n        require(amount > startPoint);\r\n        require(clock < _time + duration);\r\n        bids.push(amount);\r\n        bidders[bidder] = amount;\r\n        if(amount > largest) {\r\n            largest = amount;\r\n            winner = bidder;\r\n        }\r\n    }\r\n\r\n    modifier onlyOwner() {\r\n        require(msg.sender == assetOwner);\r\n        _;\r\n    }\r\n\r\n    modifier onlyWinner() {\r\n        require(msg.sender == winner);\r\n        _;\r\n    }\r\n\r\n    function getWinner() external view onlyOwner returns(address) {\r\n        require(block.timestamp > _time + duration);\r\n        return winner;        \r\n    }\r\n\r\n    function getAsset(uint fee) external onlyWinner payable {\r\n        require(fee == largest);\r\n        fee = msg.value;\r\n        assetOwner.transfer(largest);\r\n    }\r\n\r\n    function sendAsset() external onlyOwner payable {\r\n        winner.transfer(asset);\r\n    }    \r\n}\r\n",
  "sourcePath": "C:\\Users\\lateefat .D. Ibrahim\\Desktop\\Blank\\SmartContractProject\\auction contract\\contracts\\auction.sol",
  "compiler": {
    "name": "solc",
    "version": "0.8.11+commit.d7f03943.Emscripten.clang"
  },
  "schemaVersion": "3.4.4",
  "updatedAt": "2022-08-14T07:00:09.561Z",
  "networkType": "ethereum",
  "devdoc": {
    "kind": "dev",
    "methods": {},
    "version": 1
  },
  "userdoc": {
    "kind": "user",
    "methods": {},
    "version": 1
  }
}